:1000000018C032C031C030C02FC02EC02DC02CC08F
:100010002BC02AC029C028C027C026C025C024C0A4
:1000200023C022C021C06364696E6F7073757858F5
:100030005B0011241FBECFE5D4E0DEBFCDBF10E0D2
:10004000A0E6B0E0E4EFFFE002C005900D92A23D13
:10005000B107D9F711E0A2EDB0E001C01D92AA32BC
:10006000B107E1F702D0C4C7CBCF8F929F92AF9276
:10007000BF92CF92DF92EF92FF920F931F93DF9385
:10008000CF93CDB7DEB766970FB6F894DEBF0FBE3D
:10009000CDBF1A82198297D06BEB70E07093250167
:1000A000609324017093270160932601C19880E634
:1000B00090E084D18E010D5F1F4F6E010894C11C2A
:1000C000D11C22E8E22E20E0F22E9BEA892E90E05D
:1000D000992E8DE6A82E80E0B82E409124015091F3
:1000E000250163E170E0C8013FD1892B09F456C0B6
:1000F0008B8190E033D78136910541F08D369105A3
:1001000051F11F930F93BF92AF923EC0DF92CF92F7
:10011000FF92EF921F930F93C0D12DB73EB72A5F86
:100120003F4F0FB6F8943EBF0FBE2DBF18161906ED
:100130008CF589819A818033910519F0C19769F610
:1001400005C088E890E074D1C09AC7CF82E990E0FA
:100150006FD1C098C2CFDF92CF92FF92EF921F93E0
:100160000F939BD12DB73EB72A5F3F4F0FB6F89440
:100170003EBF0FBE2DBF1816190664F489819A81FF
:100180009F938F939F928F9241D10F900F900F90DA
:100190000F90A3CF8BE990E04BD19FCF80E090E010
:1001A00066960FB6F894DEBF0FBECDBFCF91DF913C
:1001B0001F910F91FF90EF90DF90CF90BF90AF9085
:1001C0009F908F90089589E189B988E18AB908954F
:1001D0001F93182F873041F46091280170912901F5
:1001E00089EC90E0EBD007C08A3011F48DE0F0DFAD
:1001F0005D9BFECF1CB980E090E01F910895EF92C7
:10020000FF920F931F93CF93DF937C018091D200D5
:100210009091D300892B09F08BC004ED10E05F9B17
:10022000FECF5C9B03C02EEF3FEF96C05B9992C060
:100230009CB19D3011F09A3061F48AE0F80180831E
:10024000B701C6DF84ED90E09093D3008093D20095
:100250006FC0993009F490E2892F80528F3510F0E9
:10026000903A70F0F1E003321F0719F4B70187E00C
:1002700005C0F80191938F01B701892FA9DFCFCF76
:10028000923119F1933130F4933009F463C098300E
:1002900031F609C0973109F440C09F3721F09531FC
:1002A00009F0BDCF2AC0F0E0043D1F0709F008F4B3
:1002B000B6CFB70188E08CDFB70180E289DFB701F4
:1002C00088E086DF01501040AACFB7018DE080DFC3
:1002D000C4EDD0E003C0B70189917ADFC017D10720
:1002E000D0F39DCFB70188E073DFB70180E270DF04
:1002F000B70188E06DDF0150104080E0043D180731
:1003000009F080F78CCFB70188E062DFB70180E2A7
:100310005FDFB70188E05CDF8E01E0E0043D1E078F
:1003200009F008F47CCFE8018A91803261F777CF39
:10033000E091D200F091D3008191F093D300E0934B
:10034000D2008A3021F41092D3001092D200282FCC
:1003500030E002C02FEF3FEFC901DF91CF911F9135
:100360000F91FF90EF900895A0E0B0E0E9EBF1E08D
:1003700012C67C016A01FA01838180FF18C016163B
:100380001706ACF4EB01219787010CC0C60100D51C
:10039000FFEF8F3F9F0759F0F80181938F010A9774
:1003A00019F02197209791F7F801108202C0EE24EE
:1003B000FF24C701CDB7DEB7E8E009C6EF92FF9290
:1003C0000F931F93CF93DF937C018B01DB01139677
:1003D0008C9181FD03C0CFEFDFEF13C0C0E0D0E010
:1003E0000BC0D8011896ED91FC911997B8010995A9
:1003F000892B11F0CFEFDFEFF70181917F01882387
:1004000081F7CE01CDB7DEB7E6E0E3C5A0E0B0E00E
:10041000EBE0F2E0C6C5FE01359661917191AF0146
:1004200080912601909127014ED02096E2E0D5C51B
:100430000F931F93CF93DF938C01E0912601F091EE
:100440002701838181FF21C0C0E0D0E00DC0E09191
:100450002601F091270120853185BF01F901099519
:10046000892B11F0CFEFDFEFF80181918F01882305
:1004700071F7E0912601F091270120853185BF01B8
:100480008AE0F9010995892B11F0CFEFDFEFCE015A
:10049000DF91CF911F910F910895AEE0B0E0E2E5BA
:1004A000F2E07FC585E08C838B899C899A83898360
:1004B000CE014796AC016D897E89CE01019646D367
:1004C0002E96E2E08AC5ABE0B0E0E8E6F2E059C57E
:1004D0003C012B015A01FC0117821682838181FDA8
:1004E00003C06FEF7FEFBBC19AE0892E1E01089415
:1004F000211C311CF3012381F20123FD859123FF8F
:1005000081912F01882309F4A7C1853239F423FD95
:10051000859123FF81912F01853221F4B30190E071
:1005200079D4E8CF982FDD24CC249924FFE1FD1560
:10053000D0F09B3269F09C3228F4903259F093321B
:1005400091F40EC09D3249F0903369F441E024C02B
:1005500052E0D52A84E0D82A28C098E0D92A25C0BC
:10056000E0E1DE2A22C0D7FC29C0892F80538A30DF
:1005700070F4D6FE05C0989C902C1124980E15C0DE
:10058000C89CC02C1124C80EF0E2DF2A0EC09E3297
:1005900029F4D6FC61C140E4D42A07C09C3619F482
:1005A00050E8D52A02C0983649F4F20123FD95910E
:1005B00023FF91912F01992309F0B8CF892F8554FA
:1005C000833018F08052833038F444E050E0A40EB9
:1005D000B51E5FE359830FC0933631F0933779F03E
:1005E000933509F052C01FC0F5018081898342E034
:1005F00050E0A40EB51E710101E010E011C0F5013C
:10060000E080F180D6FC03C06FEF7FEF02C0692D60
:1006100070E042E050E0A40EB51EC701AED38C01DD
:100620005FE7D52213C0F501E080F180D6FC03C05E
:100630006FEF7FEF02C0692D70E042E050E0A40E42
:10064000B51EC7018FD38C0150E8D52AD3FE06C052
:1006500018C0B30180E290E0DDD3CA948C2D90E005
:1006600008171907B0F30DC0F701D7FC8591D7FE25
:1006700081917F01B30190E0CDD3C110CA940150A4
:1006800010400115110581F7E4C0943611F0993638
:1006900069F5D7FE08C0F501E080F1800281138181
:1006A00044E050E00AC0F501808191817C0100277F
:1006B000F7FC0095102F42E050E0A40EB51E5FE657
:1006C000D52217FF0AC010950095F094E094E11C24
:1006D000F11C011D111D80E8D82A2AE030E0A1019B
:1006E000C801B701DDD3F82EF2183FC0953729F4C1
:1006F0001D2D1F7E2AE030E01DC01D2D197F9F3665
:1007000061F0903720F4983509F0A6C00FC09037FB
:1007100039F0983709F0A0C004C028E030E00AC0E2
:10072000106114FD146020E130E004C014FD166077
:1007300020E132E017FF08C0F501608171818281FC
:10074000938144E050E008C0F50180819181BC01B3
:1007500080E090E042E050E0A40EB51EA101A0D3DD
:10076000F82EF2188FE7D82ED122D6FE0BC05EEFFE
:10077000D522F91438F4D4FE07C0D2FC05C08FEEA0
:10078000D82202C01F2D01C0192DD4FE0DC0FE01BC
:10079000EF0DF11D8081803319F499EED92208C044
:1007A0001F5FD2FE05C003C08D2D867809F01F5F44
:1007B0000D2DD3FC13C0D0FE0EC01C1510F09F2CC5
:1007C0000AC09F2C9C0C911A1C2D05C0B30180E21D
:1007D00090E020D31F5F1C15C8F304C01C1510F453
:1007E000C11A01C0CC2404FF0FC0B30180E390E024
:1007F00011D302FF1CC001FD03C088E790E002C0D6
:1008000088E590E0B3010CC0802F867881F001FF6D
:1008100002C08BE201C080E2D7FC8DE2B30190E020
:10082000F9D205C0B30180E390E0F4D29A94F914B0
:10083000C8F3FA94F101EF0DF11DB301808190E04E
:10084000E9D2FF20B1F705C0B30180E290E0E2D227
:10085000CA94CC20C9F74ECEF30166817781CB01D3
:100860002B96E2E1AAC3FC0120FD08C023FD05C0D0
:1008700022FF02C073836283518340830895EF9205
:10088000FF920F931F9344FF02C033E011C046FF55
:1008900002C034E00DC0DB01FC01AA0FBB1FEE1F3C
:1008A000FF1F1094D1F76A0F7B1F8E1F9F1F31E02F
:1008B000660F771F881F991F3150D1F77B018C017C
:1008C000E20EF11C011D111DA8019701B701CA011B
:1008D0001F910F91FF90EF9008950F931F93CF9367
:1008E000DF938C01C80154D2EC0197FD06C03ED3C2
:1008F000892BC1F7B801CE01B9D2CE01DF91CF91DA
:100900001F910F910895A0E0B0E0E8E8F4E041C342
:10091000EC01C62E5A01122F3BD2AC018B3219F0DA
:100920008D3249F41068CA9409F466C0CE0130D201
:10093000AC0197FD61C06DEFD62ED1228D2D807355
:10094000F1F44033E1F4CA9409F442C0CE0120D25C
:10095000AC0197FD3DC082E0D82A483711F04835F8
:1009600051F480E4D82ACA9499F1CE0111D2AC0195
:1009700099232CF42DC0D6FC02C080E1D82AEE24A5
:10098000FF248701242F2053283080F0D4FC09C095
:100990002A3060F0D6FE05C02F7D822F815186302F
:1009A00020F0BE01CA0162D210C027504D2DC801EF
:1009B000B70165DF7B018C0182E0D82ACA9459F027
:1009C000CE01E6D1AC0197FFDDCFD1FC04C014C04D
:1009D000EE24FF248701D7FE08C010950095F094FF
:1009E000E094E11CF11C011D111D2D2DB801A70182
:1009F000C50139DF81E001C080E0CDB7DEB7EAE0B4
:100A0000E4C2A0E2B0E0E6E0F5E0BFC26C01A62ED1
:100A10008A017901FE01319680E2DF011D928A95FB
:100A2000E9F770E030E060E040E050E04F01A1E025
:100A3000B0E0F6018381F70183FD259183FF2191C9
:100A40007F01222309F47CC02E3519F4411551058C
:100A500069F1872F90E08417950744F42D3551F103
:100A60002D3221F4332329F431E021C0332309F45A
:100A7000622F322F832F869586958695F401E80F95
:100A8000F11D832F87703D0102C0660C771C8A958B
:100A9000E2F7208126292083361711F430E007C0C1
:100AA000361710F43F5FE6CF3150E4CF71E04F5F6F
:100AB0005F4FBFCF332319F08E8180628E837723FF
:100AC00059F0FE0131969E012F5D3F4F8081809548
:100AD0008193E217F307D1F7BB24B3944E01089436
:100AE000811C911CC60154D1AC0197FD21C0869593
:100AF00086958695F401E80FF11D808190E09A01BA
:100B00002770307002C0959587952A95E2F780FD91
:100B100004C0B601CA01AAD10BC00115110519F014
:100B2000D8014D938D01AA94BB24AA20D9F602C006
:100B3000BB2031F40115110529F0F801108202C023
:100B4000EE24FF24C701A096EEE03BC2A0E0B0E097
:100B5000EBEAF5E01AC25C016B013A01FC01178275
:100B600016828824DCC0812F90E000D2892B19F0F6
:100B7000C501B3DED4C0153249F4F601F3FC65912A
:100B8000F3FE61916F01653259F415E2C50100D1A0
:100B900097FDD1C0181709F4C2C0B50167D1D0C004
:100BA0006A3219F0162F00E006C0F3FC1591F3FE2F
:100BB00011916F0101E099240EC00260692D70E06F
:100BC00080E090E040E25BDE962EF601F3FC1591AA
:100BD000F3FE11916F01212F20532A3070F301FD94
:100BE00003C099249A9403C0992009F4A9C0183627
:100BF00021F01C3699F4F6010BC0F601F3FC659167
:100C0000F3FE6191683619F06F01162F07C0086076
:100C10000460F3FC1591F3FE11916F01112309F4A7
:100C20008FC0612F70E086E290E091D0892B09F4AB
:100C300087C0802F00FF03C0EE24FF2407C0F3010C
:100C4000E080F18022E030E0620E731E1E3649F42F
:100C5000F5014681578160E070E0202FC70103DE77
:100C60005EC0133689F481FD02C099249394C501B6
:100C70008FD097FD60C0E114F10419F0F701819362
:100C80007F019A94A1F749C01B3551F49601A70141
:100C9000692DC501B6DE6C01009709F03EC038C071
:100CA000C5011BDE97FD47C01F3641F1103728F400
:100CB000143611F1193621F524C0133719F0153700
:100CC000F9F41AC0C50164D0EC0197FD0FC04ED1F4
:100CD000892B21F0B501CE01C9D008C0E114F1047F
:100CE00019F0F701C1937F019A9461F7E114F104BF
:100CF000A1F0F701108211C0006203C0006101C0C1
:100D00000064202FA701692DC501FDDD882329F48A
:100D1000F5018381807379F413C000FF8394F5019A
:100D2000F380F601F3FC1591F3FE11916F0111238D
:100D300009F019CF05C0882019F42FEF3FEF02C04A
:100D4000282D30E0C901CDB7DEB7EEE03AC1FC0195
:100D50000590061621F00020D9F7C00108953197BB
:100D6000CF010895FC010590615070400110D8F743
:100D7000809590958E0F9F1F0895FC0161507040E3
:100D800001900110D8F7809590958E0F9F1F0895C0
:100D9000CF93DF93EC014B8140FF1AC046FF0AC09E
:100DA0004F7B4B838E819F8101969F838E838A81A7
:100DB000282F2BC042FF13C0E881F9818081282FA2
:100DC000332727FD30952115310529F440624B83E7
:100DD0002FEF3FEF1BC03196F983E88311C0EA85FE
:100DE000FB85CE0109959C0197FF0AC09B812F5F6F
:100DF0003F4F11F080E201C080E1892B8B83E8CF67
:100E00008E819F8101969F838E8330E0C901DF919F
:100E1000CF9108950F931F93CF93DF938C01EB0134
:100E20008B8181FF1BC082FF0DC02E813F818C8191
:100E30009D812817390764F4E881F9810193F983CA
:100E4000E88306C0E885F985802F0995892B31F460
:100E50008E819F8101969F838E8302C00FEF1FEFCB
:100E6000C801DF91CF911F910F9108959C01FB0163
:100E7000838180FF11C086FD0FC09FEF2F3F390790
:100E800059F0228380648F7D8383868197810197C7
:100E90009783868330E002C02FEF3FEFC9010895AA
:100EA000FA01AA27283051F1203181F1E8946F939B
:100EB0006E7F6E5F7F4F8F4F9F4FAF4FB1E03ED041
:100EC000B4E03CD0670F781F891F9A1FA11D680FDF
:100ED000791F8A1F911DA11D6A0F711D811D911D12
:100EE000A11D20D009F468943F912AE0269F112487
:100EF0003019305D3193DEF6CF010895462F4770EB
:100F0000405D4193B3E00FD0C9F7F6CF462F4F7045
:100F1000405D4A3318F0495D31FD4052419302D0A3
:100F2000A9F7EACFB4E0A695979587957795679549
:100F3000BA95C9F700976105710508959B01AC0149
:100F40000A2E06945795479537952795BA95C9F770
:100F5000620F731F841F951FA01D0895911108959E
:100F600081548A5108F4805E855A0895911106C013
:100F7000803219F089508550D0F708959927882735
:100F800008952F923F924F925F926F927F928F922D
:100F90009F92AF92BF92CF92DF92EF92FF920F9308
:100FA0001F93CF93DF93CDB7DEB7CA1BDB0B0FB612
:100FB000F894DEBF0FBECDBF09942A8839884888CF
:100FC0005F846E847D848C849B84AA84B984C88465
:100FD000DF80EE80FD800C811B81AA81B981CE0F5C
:100FE000D11D0FB6F894DEBF0FBECDBFED01089541
:040FF000F894FFCFA3
:100FF400416C61726D2072656164790A00556E6B93
:101004006E6F776E20636F6D6D616E643A20257329
:101014000A00252A63256400416C61726D204F66C5
:101024006600416C61726D204F6E00737363616E74
:10103400662829206661696C6564004D6F646520CB
:1010440073657420746F2025640A00000000030097
:10105400000000E800FF0000002A72696E672A0A97
:0210640000008A
:00000001FF
